{
  "_format": "hh-sol-artifact-1",
  "contractName": "Oracle",
  "sourceName": "contracts/Oracle.sol",
  "abi": [
    {
      "inputs": [],
      "stateMutability": "nonpayable",
      "type": "constructor"
    },
    {
      "anonymous": false,
      "inputs": [
        {
          "indexed": false,
          "internalType": "bytes32",
          "name": "key",
          "type": "bytes32"
        },
        {
          "indexed": false,
          "internalType": "uint256",
          "name": "chainId",
          "type": "uint256"
        },
        {
          "indexed": false,
          "internalType": "address",
          "name": "fromToken",
          "type": "address"
        },
        {
          "indexed": false,
          "internalType": "address",
          "name": "toToken",
          "type": "address"
        },
        {
          "indexed": false,
          "internalType": "uint256",
          "name": "amount",
          "type": "uint256"
        }
      ],
      "name": "PriceRequested",
      "type": "event"
    },
    {
      "anonymous": false,
      "inputs": [
        {
          "indexed": true,
          "internalType": "bytes32",
          "name": "role",
          "type": "bytes32"
        },
        {
          "indexed": true,
          "internalType": "bytes32",
          "name": "previousAdminRole",
          "type": "bytes32"
        },
        {
          "indexed": true,
          "internalType": "bytes32",
          "name": "newAdminRole",
          "type": "bytes32"
        }
      ],
      "name": "RoleAdminChanged",
      "type": "event"
    },
    {
      "anonymous": false,
      "inputs": [
        {
          "indexed": true,
          "internalType": "bytes32",
          "name": "role",
          "type": "bytes32"
        },
        {
          "indexed": true,
          "internalType": "address",
          "name": "account",
          "type": "address"
        },
        {
          "indexed": true,
          "internalType": "address",
          "name": "sender",
          "type": "address"
        }
      ],
      "name": "RoleGranted",
      "type": "event"
    },
    {
      "anonymous": false,
      "inputs": [
        {
          "indexed": true,
          "internalType": "bytes32",
          "name": "role",
          "type": "bytes32"
        },
        {
          "indexed": true,
          "internalType": "address",
          "name": "account",
          "type": "address"
        },
        {
          "indexed": true,
          "internalType": "address",
          "name": "sender",
          "type": "address"
        }
      ],
      "name": "RoleRevoked",
      "type": "event"
    },
    {
      "inputs": [],
      "name": "DEFAULT_ADMIN_ROLE",
      "outputs": [
        {
          "internalType": "bytes32",
          "name": "",
          "type": "bytes32"
        }
      ],
      "stateMutability": "view",
      "type": "function"
    },
    {
      "inputs": [],
      "name": "ORACLE_ROLE",
      "outputs": [
        {
          "internalType": "bytes32",
          "name": "",
          "type": "bytes32"
        }
      ],
      "stateMutability": "view",
      "type": "function"
    },
    {
      "inputs": [],
      "name": "PRICE_REQUESTER_ROLE",
      "outputs": [
        {
          "internalType": "bytes32",
          "name": "",
          "type": "bytes32"
        }
      ],
      "stateMutability": "view",
      "type": "function"
    },
    {
      "inputs": [
        {
          "internalType": "bytes32",
          "name": "role",
          "type": "bytes32"
        }
      ],
      "name": "getRoleAdmin",
      "outputs": [
        {
          "internalType": "bytes32",
          "name": "",
          "type": "bytes32"
        }
      ],
      "stateMutability": "view",
      "type": "function"
    },
    {
      "inputs": [
        {
          "internalType": "bytes32",
          "name": "role",
          "type": "bytes32"
        },
        {
          "internalType": "address",
          "name": "account",
          "type": "address"
        }
      ],
      "name": "grantRole",
      "outputs": [],
      "stateMutability": "nonpayable",
      "type": "function"
    },
    {
      "inputs": [
        {
          "internalType": "bytes32",
          "name": "role",
          "type": "bytes32"
        },
        {
          "internalType": "address",
          "name": "account",
          "type": "address"
        }
      ],
      "name": "hasRole",
      "outputs": [
        {
          "internalType": "bool",
          "name": "",
          "type": "bool"
        }
      ],
      "stateMutability": "view",
      "type": "function"
    },
    {
      "inputs": [
        {
          "internalType": "bytes32",
          "name": "role",
          "type": "bytes32"
        },
        {
          "internalType": "address",
          "name": "account",
          "type": "address"
        }
      ],
      "name": "renounceRole",
      "outputs": [],
      "stateMutability": "nonpayable",
      "type": "function"
    },
    {
      "inputs": [
        {
          "internalType": "bytes32",
          "name": "key",
          "type": "bytes32"
        },
        {
          "internalType": "uint256",
          "name": "chainId",
          "type": "uint256"
        },
        {
          "internalType": "address",
          "name": "fromToken",
          "type": "address"
        },
        {
          "internalType": "address",
          "name": "toToken",
          "type": "address"
        },
        {
          "internalType": "uint256",
          "name": "amount",
          "type": "uint256"
        },
        {
          "internalType": "address",
          "name": "callbackAddress",
          "type": "address"
        },
        {
          "internalType": "bytes",
          "name": "callbackData",
          "type": "bytes"
        }
      ],
      "name": "requestPrice",
      "outputs": [],
      "stateMutability": "nonpayable",
      "type": "function"
    },
    {
      "inputs": [
        {
          "internalType": "bytes32",
          "name": "role",
          "type": "bytes32"
        },
        {
          "internalType": "address",
          "name": "account",
          "type": "address"
        }
      ],
      "name": "revokeRole",
      "outputs": [],
      "stateMutability": "nonpayable",
      "type": "function"
    },
    {
      "inputs": [
        {
          "internalType": "bytes32",
          "name": "key",
          "type": "bytes32"
        },
        {
          "internalType": "uint256",
          "name": "value",
          "type": "uint256"
        },
        {
          "internalType": "uint8",
          "name": "decimals",
          "type": "uint8"
        }
      ],
      "name": "submitPrice",
      "outputs": [],
      "stateMutability": "nonpayable",
      "type": "function"
    },
    {
      "inputs": [
        {
          "internalType": "bytes4",
          "name": "interfaceId",
          "type": "bytes4"
        }
      ],
      "name": "supportsInterface",
      "outputs": [
        {
          "internalType": "bool",
          "name": "",
          "type": "bool"
        }
      ],
      "stateMutability": "view",
      "type": "function"
    }
  ],
  "bytecode": "0x60806040523480156200001157600080fd5b50620000276000801b336200009160201b60201c565b620000597f3bcf41d191064bcda109a6f23bf29bd67015b41a271efd0c32e6fb6272a7dbf6336200009160201b60201c565b6200008b7f68e79a7bf1e0bc45d0a330c573bc367f9cf464fd326078812f301165fbda4ef1336200009160201b60201c565b620001f4565b620000a382826200018260201b60201c565b6200017e57600160008084815260200190815260200160002060000160008373ffffffffffffffffffffffffffffffffffffffff1673ffffffffffffffffffffffffffffffffffffffff16815260200190815260200160002060006101000a81548160ff02191690831515021790555062000123620001ec60201b60201c565b73ffffffffffffffffffffffffffffffffffffffff168173ffffffffffffffffffffffffffffffffffffffff16837f2f8788117e7eff1d82e926ec794901d17c78024a50270940304540a733656f0d60405160405180910390a45b5050565b600080600084815260200190815260200160002060000160008373ffffffffffffffffffffffffffffffffffffffff1673ffffffffffffffffffffffffffffffffffffffff16815260200190815260200160002060009054906101000a900460ff16905092915050565b600033905090565b61185880620002046000396000f3fe608060405234801561001057600080fd5b50600436106100a95760003560e01c806336568abe1161007157806336568abe1461016657806391d14854146101825780639887b27c146101b2578063a217fddf146101ce578063cdd3e1ed146101ec578063d547741f14610208576100a9565b806301ffc9a7146100ae57806307e2cea5146100de578063248a9ca3146100fc5780632a8918ac1461012c5780632f2ff15d1461014a575b600080fd5b6100c860048036038101906100c39190610c13565b610224565b6040516100d59190610c5b565b60405180910390f35b6100e661029e565b6040516100f39190610c8f565b60405180910390f35b61011660048036038101906101119190610cd6565b6102c2565b6040516101239190610c8f565b60405180910390f35b6101346102e1565b6040516101419190610c8f565b60405180910390f35b610164600480360381019061015f9190610d61565b610305565b005b610180600480360381019061017b9190610d61565b610326565b005b61019c60048036038101906101979190610d61565b6103a9565b6040516101a99190610c5b565b60405180910390f35b6101cc60048036038101906101c79190610e10565b610413565b005b6101d661056a565b6040516101e39190610c8f565b60405180910390f35b61020660048036038101906102019190610fa9565b610571565b005b610222600480360381019061021d9190610d61565b610651565b005b60007f7965db0b000000000000000000000000000000000000000000000000000000007bffffffffffffffffffffffffffffffffffffffffffffffffffffffff1916827bffffffffffffffffffffffffffffffffffffffffffffffffffffffff19161480610297575061029682610672565b5b9050919050565b7f68e79a7bf1e0bc45d0a330c573bc367f9cf464fd326078812f301165fbda4ef181565b6000806000838152602001908152602001600020600101549050919050565b7f3bcf41d191064bcda109a6f23bf29bd67015b41a271efd0c32e6fb6272a7dbf681565b61030e826102c2565b610317816106dc565b61032183836106f0565b505050565b61032e6107d0565b73ffffffffffffffffffffffffffffffffffffffff168173ffffffffffffffffffffffffffffffffffffffff161461039b576040517f08c379a0000000000000000000000000000000000000000000000000000000008152600401610392906110ea565b60405180910390fd5b6103a582826107d8565b5050565b600080600084815260200190815260200160002060000160008373ffffffffffffffffffffffffffffffffffffffff1673ffffffffffffffffffffffffffffffffffffffff16815260200190815260200160002060009054906101000a900460ff16905092915050565b7f68e79a7bf1e0bc45d0a330c573bc367f9cf464fd326078812f301165fbda4ef161043d816106dc565b6000600160008681526020019081526020016000209050838160000181905550828160010160146101000a81548160ff021916908360ff16021790555060008160010160009054906101000a900473ffffffffffffffffffffffffffffffffffffffff169050600073ffffffffffffffffffffffffffffffffffffffff168173ffffffffffffffffffffffffffffffffffffffff1614610562578073ffffffffffffffffffffffffffffffffffffffff1663f8fd96b5836002016040518263ffffffff1660e01b81526004016105139190611214565b600060405180830381600087803b15801561052d57600080fd5b505af192505050801561053e575060015b156105615760018260010160156101000a81548160ff0219169083151502179055505b5b505050505050565b6000801b81565b7f3bcf41d191064bcda109a6f23bf29bd67015b41a271efd0c32e6fb6272a7dbf661059b816106dc565b6000600160008a81526020019081526020016000209050838160010160006101000a81548173ffffffffffffffffffffffffffffffffffffffff021916908373ffffffffffffffffffffffffffffffffffffffff1602179055508281600201908161060691906113d8565b507fe4c23cb0ccec08a3c355beae294ba7c1dfcc70eaac71453411e88ac890eb3296898989898960405161063e9594939291906114c8565b60405180910390a1505050505050505050565b61065a826102c2565b610663816106dc565b61066d83836107d8565b505050565b60007f01ffc9a7000000000000000000000000000000000000000000000000000000007bffffffffffffffffffffffffffffffffffffffffffffffffffffffff1916827bffffffffffffffffffffffffffffffffffffffffffffffffffffffff1916149050919050565b6106ed816106e86107d0565b6108b9565b50565b6106fa82826103a9565b6107cc57600160008084815260200190815260200160002060000160008373ffffffffffffffffffffffffffffffffffffffff1673ffffffffffffffffffffffffffffffffffffffff16815260200190815260200160002060006101000a81548160ff0219169083151502179055506107716107d0565b73ffffffffffffffffffffffffffffffffffffffff168173ffffffffffffffffffffffffffffffffffffffff16837f2f8788117e7eff1d82e926ec794901d17c78024a50270940304540a733656f0d60405160405180910390a45b5050565b600033905090565b6107e282826103a9565b156108b557600080600084815260200190815260200160002060000160008373ffffffffffffffffffffffffffffffffffffffff1673ffffffffffffffffffffffffffffffffffffffff16815260200190815260200160002060006101000a81548160ff02191690831515021790555061085a6107d0565b73ffffffffffffffffffffffffffffffffffffffff168173ffffffffffffffffffffffffffffffffffffffff16837ff6391f5c32d9c69d2a47ea670b442974b53935d1edc7fd64eb21e047a839171b60405160405180910390a45b5050565b6108c382826103a9565b61093a576108d08161093e565b6108de8360001c602061096b565b6040516020016108ef929190611624565b6040516020818303038152906040526040517f08c379a00000000000000000000000000000000000000000000000000000000081526004016109319190611697565b60405180910390fd5b5050565b60606109648273ffffffffffffffffffffffffffffffffffffffff16601460ff1661096b565b9050919050565b60606000600283600261097e91906116e8565b610988919061172a565b67ffffffffffffffff8111156109a1576109a0610e7e565b5b6040519080825280601f01601f1916602001820160405280156109d35781602001600182028036833780820191505090505b5090507f300000000000000000000000000000000000000000000000000000000000000081600081518110610a0b57610a0a61175e565b5b60200101907effffffffffffffffffffffffffffffffffffffffffffffffffffffffffffff1916908160001a9053507f780000000000000000000000000000000000000000000000000000000000000081600181518110610a6f57610a6e61175e565b5b60200101907effffffffffffffffffffffffffffffffffffffffffffffffffffffffffffff1916908160001a90535060006001846002610aaf91906116e8565b610ab9919061172a565b90505b6001811115610b59577f3031323334353637383961626364656600000000000000000000000000000000600f861660108110610afb57610afa61175e565b5b1a60f81b828281518110610b1257610b1161175e565b5b60200101907effffffffffffffffffffffffffffffffffffffffffffffffffffffffffffff1916908160001a905350600485901c945080610b529061178d565b9050610abc565b5060008414610b9d576040517f08c379a0000000000000000000000000000000000000000000000000000000008152600401610b9490611802565b60405180910390fd5b8091505092915050565b6000604051905090565b600080fd5b600080fd5b60007fffffffff0000000000000000000000000000000000000000000000000000000082169050919050565b610bf081610bbb565b8114610bfb57600080fd5b50565b600081359050610c0d81610be7565b92915050565b600060208284031215610c2957610c28610bb1565b5b6000610c3784828501610bfe565b91505092915050565b60008115159050919050565b610c5581610c40565b82525050565b6000602082019050610c706000830184610c4c565b92915050565b6000819050919050565b610c8981610c76565b82525050565b6000602082019050610ca46000830184610c80565b92915050565b610cb381610c76565b8114610cbe57600080fd5b50565b600081359050610cd081610caa565b92915050565b600060208284031215610cec57610ceb610bb1565b5b6000610cfa84828501610cc1565b91505092915050565b600073ffffffffffffffffffffffffffffffffffffffff82169050919050565b6000610d2e82610d03565b9050919050565b610d3e81610d23565b8114610d4957600080fd5b50565b600081359050610d5b81610d35565b92915050565b60008060408385031215610d7857610d77610bb1565b5b6000610d8685828601610cc1565b9250506020610d9785828601610d4c565b9150509250929050565b6000819050919050565b610db481610da1565b8114610dbf57600080fd5b50565b600081359050610dd181610dab565b92915050565b600060ff82169050919050565b610ded81610dd7565b8114610df857600080fd5b50565b600081359050610e0a81610de4565b92915050565b600080600060608486031215610e2957610e28610bb1565b5b6000610e3786828701610cc1565b9350506020610e4886828701610dc2565b9250506040610e5986828701610dfb565b9150509250925092565b600080fd5b600080fd5b6000601f19601f8301169050919050565b7f4e487b7100000000000000000000000000000000000000000000000000000000600052604160045260246000fd5b610eb682610e6d565b810181811067ffffffffffffffff82111715610ed557610ed4610e7e565b5b80604052505050565b6000610ee8610ba7565b9050610ef48282610ead565b919050565b600067ffffffffffffffff821115610f1457610f13610e7e565b5b610f1d82610e6d565b9050602081019050919050565b82818337600083830152505050565b6000610f4c610f4784610ef9565b610ede565b905082815260208101848484011115610f6857610f67610e68565b5b610f73848285610f2a565b509392505050565b600082601f830112610f9057610f8f610e63565b5b8135610fa0848260208601610f39565b91505092915050565b600080600080600080600060e0888a031215610fc857610fc7610bb1565b5b6000610fd68a828b01610cc1565b9750506020610fe78a828b01610dc2565b9650506040610ff88a828b01610d4c565b95505060606110098a828b01610d4c565b945050608061101a8a828b01610dc2565b93505060a061102b8a828b01610d4c565b92505060c088013567ffffffffffffffff81111561104c5761104b610bb6565b5b6110588a828b01610f7b565b91505092959891949750929550565b600082825260208201905092915050565b7f416363657373436f6e74726f6c3a2063616e206f6e6c792072656e6f756e636560008201527f20726f6c657320666f722073656c660000000000000000000000000000000000602082015250565b60006110d4602f83611067565b91506110df82611078565b604082019050919050565b60006020820190508181036000830152611103816110c7565b9050919050565b7f4e487b7100000000000000000000000000000000000000000000000000000000600052602260045260246000fd5b6000600282049050600182168061115157607f821691505b6020821081036111645761116361110a565b5b50919050565b600082825260208201905092915050565b60008190508160005260206000209050919050565b6000815461119d81611139565b6111a7818661116a565b945060018216600081146111c257600181146111d85761120b565b60ff19831686528115156020028601935061120b565b6111e18561117b565b60005b83811015611203578154818901526001820191506020810190506111e4565b808801955050505b50505092915050565b6000602082019050818103600083015261122e8184611190565b905092915050565b600081519050919050565b60006020601f8301049050919050565b600082821b905092915050565b60006008830261128e7fffffffffffffffffffffffffffffffffffffffffffffffffffffffffffffffff82611251565b6112988683611251565b95508019841693508086168417925050509392505050565b6000819050919050565b60006112d56112d06112cb84610da1565b6112b0565b610da1565b9050919050565b6000819050919050565b6112ef836112ba565b6113036112fb826112dc565b84845461125e565b825550505050565b600090565b61131861130b565b6113238184846112e6565b505050565b5b818110156113475761133c600082611310565b600181019050611329565b5050565b601f82111561138c5761135d8161117b565b61136684611241565b81016020851015611375578190505b61138961138185611241565b830182611328565b50505b505050565b600082821c905092915050565b60006113af60001984600802611391565b1980831691505092915050565b60006113c8838361139e565b9150826002028217905092915050565b6113e182611236565b67ffffffffffffffff8111156113fa576113f9610e7e565b5b6114048254611139565b61140f82828561134b565b600060209050601f8311600181146114425760008415611430578287015190505b61143a85826113bc565b8655506114a2565b601f1984166114508661117b565b60005b8281101561147857848901518255600182019150602085019450602081019050611453565b868310156114955784890151611491601f89168261139e565b8355505b6001600288020188555050505b505050505050565b6114b381610da1565b82525050565b6114c281610d23565b82525050565b600060a0820190506114dd6000830188610c80565b6114ea60208301876114aa565b6114f760408301866114b9565b61150460608301856114b9565b61151160808301846114aa565b9695505050505050565b600081905092915050565b7f416363657373436f6e74726f6c3a206163636f756e7420000000000000000000600082015250565b600061155c60178361151b565b915061156782611526565b601782019050919050565b600081519050919050565b60005b8381101561159b578082015181840152602081019050611580565b60008484015250505050565b60006115b282611572565b6115bc818561151b565b93506115cc81856020860161157d565b80840191505092915050565b7f206973206d697373696e6720726f6c6520000000000000000000000000000000600082015250565b600061160e60118361151b565b9150611619826115d8565b601182019050919050565b600061162f8261154f565b915061163b82856115a7565b915061164682611601565b915061165282846115a7565b91508190509392505050565b600061166982611572565b6116738185611067565b935061168381856020860161157d565b61168c81610e6d565b840191505092915050565b600060208201905081810360008301526116b1818461165e565b905092915050565b7f4e487b7100000000000000000000000000000000000000000000000000000000600052601160045260246000fd5b60006116f382610da1565b91506116fe83610da1565b925082820261170c81610da1565b91508282048414831517611723576117226116b9565b5b5092915050565b600061173582610da1565b915061174083610da1565b9250828201905080821115611758576117576116b9565b5b92915050565b7f4e487b7100000000000000000000000000000000000000000000000000000000600052603260045260246000fd5b600061179882610da1565b9150600082036117ab576117aa6116b9565b5b600182039050919050565b7f537472696e67733a20686578206c656e67746820696e73756666696369656e74600082015250565b60006117ec602083611067565b91506117f7826117b6565b602082019050919050565b6000602082019050818103600083015261181b816117df565b905091905056fea2646970667358221220a636fa5d30eb352fa6e4f673af875ef7b9178f3e342adb089dc63da2f10e4b7364736f6c63430008130033",
  "linkReferences": {},
  "deployedLinkReferences": {}
}